:020000040800F2
:1000000010050020D5000008C91A0008B119000821
:1000100000000000000000000000000000000000E0
:10002000000000000000000000000000391D000872
:100030000000000000000000CB1A0008651D000849
:10004000E700000800000000E7000008E7000008E3
:10005000E7000008E7000008E7000008E7000008E4
:1000600000000000E7000008E7000008E7000008C3
:10007000E7000008E7000008E700000800000000B3
:10008000E70000080000000000000000E700000892
:1000900000000000E7000008E7000008E700000893
:1000A000E7000008E7000008E7000008E700000894
:1000B000E700000800000000000000000000000051
:1000C0000348854600F020FB004800475522000801
:1000D000100500200448804704480047FEE7FEE77B
:1000E000FEE7FEE7FEE7FEE7EF1D0008C10000089F
:1000F000D2B201E00270401C491EFBD270470022C0
:10010000F6E710B513460A4604461946FFF7F0FF16
:10011000204610BDF0B51FB488B00B990998002493
:1001200048400999C00F490049080991C0070B9937
:100130000090490049080B9109990898A646084380
:100140001CD00B990A98084318D009980124400044
:10015000420D4800410D099824050003000B20437F
:1001600009900B980003000B20430B9050181C497A
:100170004018002201901446104605E00020014678
:100180000DB0F0BD032801DA034600E003239C46CE
:10019000C11A0AAE0AE05F0008ADED5B4F00F75BE5
:1001A0007D430027AA187C41491C5B1E6145F2DD96
:1001B000410004AB5A522104120C0A43240C401C87
:1001C0000828DFDB019802900099704601910090A9
:1001D000059B049A0799069800F0E5F8D0E700001F
:1001E0000DFCFFFF0EB5C217C10F5040CA074018E3
:1001F0000021054B0293019200910A460B4600F044
:10020000D2F803B000BD000033040000C20FD207D3
:10021000400040080BD0C10D0723DB01C918400284
:100220000905400A1143C2084007114370470020E6
:1002300001467047CB0FDB07490010B5490802465D
:100240000A4307D00A0D07240903E401090B121B16
:10025000002A01DC002010BDC900440F0C43C1007E
:10026000E018D205801800F050F810BD70B50446B3
:10027000002903D000202022012310E0002801D013
:100280000020C043C046C0460DE02546D5408D4203
:1002900005D30D469540641B1D46954040191546F3
:1002A000521E002DF1DC214670BDF0B51FB406468C
:1002B000002082B005464024019100901BE0019986
:1002C00022460F46304600F041FA049A059B801AF8
:1002D000994110D310461946224600F027FA361AE3
:1002E0008F410197224601200021009F00F01EFA55
:1002F00038184D4100902046641E0028DFDC019B29
:1003000000982946324607B0F0BD002904DA401CA7
:10031000490001D140084000704770B40024050C2A
:1003200005D11024000402D1002921D01124050E8A
:1003300001D100020834050F01D10001241D850FF1
:1003400001D18000A41C002801DB4000641C0029AE
:1003500008D020252E1B0D46F540A14000D00121DC
:100360002943084301061B1B000ADB1D02D50020A0
:1003700070BC7047DB05181880180029F8DA401C9B
:100380004900F5D170BC40084000704710B5002B03
:1003900008DA0024401C614192185B411A4301D1E4
:1003A0004008400010BDF0B51FB482B005460C00F7
:1003B00003D0084601F0BEFF02E001F0BBFF203091
:1003C000024600902146284600F0B0F9049B059AA9
:1003D00004460F4618431143084314D018461043EF
:1003E0001BD0009840210A1A1846059900F0AEF972
:1003F00005460E46009A0599049800F097F90843BF
:1004000005D0012004E02046394607B0F0BD0020A9
:10041000C11705430E432C43374300990E986305DB
:10042000401A7905E40A00220C43FD0A0A3002D57D
:1004300000200146E9E70105101969410C9C0D9D5A
:1004400000196941FFF7A2FFDFE70000F0B507469A
:100450000846584087B0C00F049048000E46590027
:1004600040084908BC1A884105D2384631461E4624
:1004700017460B4602465800400810434CD0300D3A
:10048000039040055900400D490D0590401A029017
:10049000402872DA18030121000B09050843019076
:1004A00004980092002805D001995242002088410A
:1004B00000920190029840210A1A0199009800F0D8
:1004C00035F905460C466B4607CB00F050F9C019CC
:1004D0007141039A0E0D0023D71756401A467A40F1
:1004E000164344D0049A002A2DD0029A012A039A76
:1004F00015DC1205C01A914101263605001C714118
:10050000D20F059ED2070093019202962A462346F7
:10051000FFF749FF07B0F0BD38463146FAE7160548
:10052000224A0F46B218C01AB74101210905001C22
:100530004F4100187F41114618187941E20F1043CE
:100540006D19644113E0E2076D0815436408C207A2
:100550001443039A01261205C01A91413605001C66
:100560007141CE07400830434908C01851412A461E
:100570002346FFF70BFFCDE7FFE704980122400079
:10058000C117121A00238B4104983146C417381A38
:10059000A141EEE730B40124E407634030BC55E7E5
:1005A00030B40124E407614030BC4FE70000E0FFB5
:1005B000F0B50C465C4085B0E40FE40703944C00B2
:1005C00000266408590094464908024602962243D0
:1005D00021D062460A431ED06200570D4A000E0326
:1005E0002303550D012402462C492405781B1B0BBF
:1005F000360B401823432643614600901C46501A90
:10060000B44103D30098401C009002E09218009877
:100610005B41002803DA0020014605B0F0BD002050
:10062000012109050746864611E064461D46141B54
:10063000B54106D36546521BB341744607430C438C
:10064000A646CD0740084908284392185B41054655
:100650000D43EAD11046184313D060461946504066
:100660007140084306D06046101AB34106D20122F9
:10067000002306E000220123DB0702E00122D2432F
:100680005310009874460105381C6141029C039D7B
:1006900000196941FFF77AFEBFE70000FD03000083
:1006A0004A0009030123090B1B0519430A4B10B526
:1006B000520D9A4202DA0020014610BD064B343337
:1006C0009A4203DC9A1A00F041F810BD034BD2188D
:1006D00000F02CF810BD0000FF030000CDFBFFFF71
:1006E00010B5002904DB0124E40740428C41214677
:1006F000002B04DB1C460123DB075242A341994235
:1007000000D1904210BD0000064C0125064E05E0C8
:10071000E36807CC2B430C3C98471034B442F7D322
:10072000FFF7D2FCB42C0008D42C000810B5202A06
:1007300004DB0146203A9140002010BD9140202367
:100740009C1A0346E3401943904010BD10B5202A7F
:1007500004DB0846203AD040002110BD0B46D340B0
:10076000D0402024A21A91400843194610BD10B56C
:10077000202A06DBCB170846203A1041C1170B434D
:1007800006E00B461341D0402024A21A91400843B2
:10079000194610BDEFF3108072B6FEE7B0B50446FF
:1007A00000F0E0F80546601C02D08F48007804197C
:1007B00000F0D8F8401BA042FAD3B0BDF0B588B025
:1007C0000B460968002900D1B7E002465C48824226
:1007D00001D0052000E00320009001240020054600
:1007E00006900746019407920FE03843039F55494E
:1007F000486019680846E040069E361D0696AD1C06
:100800000837641C002800D197E0661E0198059601
:10081000B04001400291ECD0039719465B68032673
:100820001F46049637407E1E012E13D8049EAE400C
:10083000079A9268B243CE68AE401643079A966014
:10084000DA06D20F059B9A40079B5B6883431343EC
:10085000079A5360032F0B46049E1ED03046A840D3
:10086000079AD26882439868A8401043079AD060DC
:10087000022F12D11C20069A10400F268640059A9E
:10088000D2089200079B9A18136AB3430E698640F8
:100890001E430B461662049E079A3046A840116814
:1008A0008143586882033040A84008430799086094
:1008B000900F079A039F9CD0182139400F20884041
:1008C000059FB7431F4EF619376E874360360520E4
:1008D000000782420AD01D48824205D01C4882424D
:1008E000009804D1022002E0012000E000208840AE
:1008F00038433060144800685E68F10302D5029FF7
:10090000384301E0029FB8430F4908604868B103CB
:1009100001D5384300E0B8430B49486009480068F6
:10092000F10201D5384300E0B84306490860486841
:10093000B10200D559E7B84358E708B0F0BDC0464A
:10094000000C0050001802408018024000040050C3
:1009500000080050002A02D0182281507047282237
:1009600081507047054800687047C0461E480078AF
:1009700002490A68101808607047C0460C01002040
:1009800010B501242002F2490A6802430A600320DC
:1009900000F00AF8002801D0204610BD00F026F82B
:1009A0000024204610BDC046B0B505460E4801786B
:1009B0000124002916D07D20C000FFF757FC014616
:1009C000E9480068FFF752FC00F0A8FE032D09D8A3
:1009D000002807D10024E0432946224600F01CF8F5
:1009E000DE4805602046B0BD0800002082B00948FE
:1009F0004168012211434160416811400191019910
:100A0000110702680A4302600068084000900098DD
:100A100002B070473C10024080B501F0EDFB80BD94
:100A2000F0B581B0032569026E4E32688A430243F5
:100A3000326001214A020024904212D1CA48026861
:100A4000706940050DD58F02062050430649FFF717
:100A50000DFC801C401E03D071693942FAD100E0C0
:100A60002C46204601B0F0BD40420F00F0B587B0E3
:100A70000646807880075A4F01D400253EE005964F
:100A800001221107203F38680840049006D13868D9
:100A9000084338603868084006900698029703912A
:100AA000019216024F4C206830432060FFF75AFF36
:100AB00005462768374006D1FFF754FF401B03283F
:100AC000F7D3032500E00025059E002F01D1444FF8
:100AD0000CE003242102424F3868084055D0726967
:100AE000904256D1C00761D1002D70D004980028E3
:100AF00004D1029A10680399884310603068C107D6
:100B000007D0394608390A6803239A4373681343A8
:100B10000B60810608D5032109033A46083A136899
:100B20008B43B168194311600121420417D53A463D
:100B3000083A13682D4C23400C4629463546366941
:100B400033431360294A521C96422E460D462146D5
:100B500005D10A043B46503B1C6814431C60000549
:100B600010D58803032292033B46083B1C6894433C
:100B7000F26814431C60824204D10804503F396873
:100B800001433960284607B0F0BD0020C007ABD054
:100B90000CE03868019A12043B6813433B603B68E1
:100BA00093433B6088433860C0079DD00194FFF7B2
:100BB000D9FE06460C4C3868800705D4FFF7D2FEF4
:100BC000801BA042F7D3019D059E002D8ED10320EE
:100BD000000239688143706908433860002585E761
:100BE0005C1002400070004089130000FFFFFF3FCF
:100BF000F0B583B00D460121002800D1A5E0019198
:100C000002905348006807242040A84214D250495B
:100C10000868A043284308604E4EFFF7A3FE07462E
:100C20004B4800682040A84206D0FFF79BFEC01B3F
:100C3000B042F5D9032188E0029B18688107734E02
:100C40000CD5410703D5210332680A4332600F21D6
:100C5000090232688A43996811433160C00719D18B
:100C60003B4800682040A84229D939490868A04378
:100C700028430860374FFFF775FE06463448006882
:100C80002040A8421BD0FFF76DFE801BB842F5D96B
:100C900003215AE0586803282FD8810001A2515837
:100CA0005A4A8F46B50C0008010D00080B0D0008CC
:100CB000150D000811460839096849052CE0029A0B
:100CC00010784007514D05D5200329688143D0682D
:100CD0000843286000F05CF8296889093C220A4032
:100CE0001D4989581F220A40D0401F4908601B48EF
:100CF0000068FFF759FE014627E0444A516D0AE0BB
:100D0000114608390968890306E01146083909685F
:100D1000890101E0916D8907019916D51168A143F8
:100D2000014311600B4FFFF71DFE06463748006870
:100D30003821014002984068C000814290D0FFF7FE
:100D400011FE801BB842F1D90321084603B0F0BD63
:100D500000200240881300002C2C00080C0000200A
:100D6000014800687047C0460400002010B5FFF736
:100D7000F7FF044600F01EFE000B800003490858F0
:100D80001F210140CC40204610BDC0466C2C0008FD
:100D900010B51E4C20688006400F06D0226838210E
:100DA0000A401B48082A07D110BD083C206880046F
:100DB000410F1848C84010BD22680A40102A15D1BA
:100DC000616803220A40032A00D01248616849067C
:100DD000490F491CFFF74AFA61684904490E484324
:100DE0006168490F491CFFF741FA10BD20680840AF
:100DF000202802D10120C00310BD20680840182817
:100E000001D0002010BD7D20000210BD081002405E
:100E100000127A000024F400F0B587B00127002802
:100E200000D1C5E1049705900078C007FE4E2CD193
:100E30000598007880074CD40598007800070DD5F8
:100E4000B06838210140182900D0A6E0306E800734
:100E500004D505988069002800D1E9E1059800785B
:100E6000400700D45FE1B06838210140202900D05C
:100E7000AAE0F06D800700D452E105988068002850
:100E800000D04DE1002001274BE1B068F168032755
:100E90003A468A4338210140102048408218504287
:100EA0005041082945D0002843D1059842680520C3
:100EB00000048242039200D1B8E0012001048A427A
:100EC00000D1B9E032688A433260810430688843D7
:100ED000B4E0B1683820084010214140F26803278F
:100EE0003A4002235340CA185142514100282BD0A6
:100EF000002929D1306801218C02059BDA68002A7B
:100F000000D1B8E00722D20290431A69024332604E
:100F10000802316801433160FFF724FD054630685F
:100F2000204200D0B7E0FFF71DFD401B0228F6D994
:100F30003EE13068800300D47AE7059840680028D5
:100F400000D075E7049F33E131684905059B03D55F
:100F5000D968002900D1B9E07F21090272688A436B
:100F6000596909021143716000280DD10720C002A0
:100F70003168814318690843306030688004400F4D
:100F8000AE49C140AE480160AE480068FFF70CFDB5
:100F9000002800D150E7049F0AE1306E0599896965
:100FA000002900D181E0012108433066FFF7DAFC17
:100FB0000546306E800700D550E7FFF7D3FC401B95
:100FC00003270228F5D9F3E0012003900107F06B15
:100FD0000840029006D1F06B0843F063F06B0840C4
:100FE000069006980191984F3868C00510D4039870
:100FF0000402386820433860FFF7B4FC05463868BF
:10100000204205D1FFF7AEFC401B0228F7D975E05E
:1010100005988768052F5BD0012F5DD0F06D03998F
:101020008843F065F06D0421884358E00120810475
:1010300032680A433260010430680843306001209E
:101040004404FFF78FFC0546039800280FD0306852
:10105000204200D0ECE6FFF785FC401B6428F6D95F
:10106000A6E0FFF77FFC401B642800D9A0E03068B1
:101070002042F6D1DCE6090288433060FFF772FCBB
:1010800005463068204200D1D6E6FFF76BFC401BD6
:101090000228F6D98CE07F20000271688143059810
:1010A0004069000208437060C6E60121884330664B
:1010B000FFF758FC0546306E800700D4CEE6FFF7F8
:1010C00051FC401B03270228F5D971E0049F6FE013
:1010D000F06D04210143F165F06D03990843F0655B
:1010E0005A4CFFF73FFC0546002F0FD0F06D8007EC
:1010F0000FD4FFF737FC401BA042F7D9002003278D
:101100000FE0FFF72FFC401BA042F7D8F06D8007DF
:10111000F7D40298002803D1F06B01998843F0635B
:101120000120002844D00598C06900283FD0B1684C
:1011300038220A40102A03D1012818D1049F37E031
:1011400001221306316899433160022833D1039399
:1011500004925406FFF706FC0546306820423FD053
:10116000FFF700FC401B03270228F6D920E0F068B7
:1011700003210140059B1A6A914257D17021014019
:101180005A6A914256D17F21090201409A6A12029D
:10119000914251D11F2149040140DA6A9142049FD2
:1011A00006D1072149070840196B884200D1002762
:1011B000F8B207B0F0BDF0680327B843F060F068FC
:1011C00023490140F1605506FFF7CCFB0446306827
:1011D0002842ECD0FFF7C6FB001B0228F7D9E7E74F
:1011E000F0681C490140059F2037ADCF08431043EC
:1011F0001902014329433943F160306803990843D8
:10120000306004980007F1680143F160FFF7AAFB22
:10121000054630682042CAD1FFF7A4FB401B0327D4
:101220000228F6D9C4E7C04600100240049FBFE779
:10123000049FBDE7049FBBE7049FB9E70024F400C7
:10124000040000200C000020007000408813000003
:10125000FFFFFEEF8C80C11FF0B585B000280CD0D9
:10126000044605465C3541208600606A002807D0A8
:10127000002020612046143007E0012005B0F0BDB9
:101280006068B04203D020461C3000210160002776
:10129000A7626878002804D100202870204600F05A
:1012A00059F8022004950190687020680168402276
:1012B000914303900160E168254A012591422A4645
:1012C00000D33A461203ED020D430F273802029075
:1012D000854201D00025A5626568A76835402123B5
:1012E0009B023B405B192569019805401D436069DD
:1012F000012318402843FC36A7693E400643E069B5
:10130000382505403543206A802606402E43580381
:10131000A56A05403543039E3560380C0425054019
:10132000029801400A432A43606A10210140114398
:10133000606B082202400A437260D802F16981435F
:10134000F1610020206604994B7005B0F0BDC046E5
:101350000107000010B586B00021059104910391AA
:10136000029101910068124A904201D006B010BD6E
:10137000012002030F4BDC681443DC60DC6814407E
:101380000094009A1A6802431A601A680240009298
:1013900005910491039102200290C2200190052042
:1013A0000007009901A9FFF709FA06B010BDC04671
:1013B0000030014034100240F0B585B017460E46AB
:1013C000054604464434412080006968814202D1C8
:1013D000A868002871D0207E012802D1022005B023
:1013E000F0BD0497039301272776FFF7BBFA014668
:1013F000607E01285FD1002E3846049B00D18EE02C
:10140000002B384600D18AE0019704206076002244
:101410002A666380EA872E642380AA87AA63EA6427
:101420002A6507200002EE68012304900296864296
:101430001E4600D9164632031E032F687868B04353
:1014400080187860D803AA68824209D128680268A7
:1014500040239A430260012292030368934303608E
:101460002A6810684006039E0F4603D41068402384
:101470000343136062880498401C0299814227D27A
:10148000002A0CD126E0007B296C0870286C401CD7
:1014900028646088401E6080608800281AD0286810
:1014A0008168C907EFD1FFF75DFA711CF4D0C01B4A
:1014B000B042F1D331E0022031E0042060760093A5
:1014C0002846314632463B4600F02EF805B0F0BDC6
:1014D000002A17D1284631463A4600F0F7FA00288C
:1014E00001D020202866286E411E884116E0296C14
:1014F000C0680880881C28646088401E60806088FE
:101500000028E7D028688168C907F0D1FFF72AFAD8
:10151000711CF4D0C01BB042F1D30320019F002105
:101520002176677605B0F0BDF0B587B004465C2043
:10153000205C012802D1022007B0F0BD1D460492B4
:1015400027464437059101263E76FFF70BFA3246CF
:10155000059E0690797E01297DD1002E104600D18E
:10156000C7E004980028104600D1C2E0002D1046C4
:1015700000D1BEE00392787E042801D00520787661
:10158000002323667D80E587E168634A012002919C
:101590009142024600D31A461103019101032068CB
:1015A00042688A43019951184160049921643D8041
:1015B000A663E3642365A5870168490603D401682F
:1015C00040220A4302600C9E61684A424A41691EF9
:1015D0004B424B41134302994F4A914249D3002B4E
:1015E00008D0A16B0988C1600598801CA063E08FBA
:1015F000401EE0870125E08F002802D1788800286E
:101600007CD02068816889070DD5E18F012D0AD132
:10161000002908D0A16B0A88C260891CA163E18FF0
:10162000491EE18700258168C9070BD07988002908
:1016300008D0216CC0680880881C20647888401E0F
:1016400078800125FFF78EF9711CD4D00699401AD5
:10165000B042D0D34BE00392412082006368022065
:10166000934245D1042943D1A1680029039A40D16E
:1016700073E7002B08D0059909780173A06B401C13
:10168000A063E08F401EE0870125E08F002802D193
:101690007888002832D02068816889070ED5E18FCC
:1016A000012D0BD1002909D0A16B09780173A06B22
:1016B000401CA063E08F401EE08700252068816801
:1016C000C9070CD07988002909D0007B216C0870EB
:1016D000206C401C20647888401E78800125FFF72C
:1016E00041F9711CD1D00699401AB042CDD30320E4
:1016F000039A002139767A7607B0F0BD204631464C
:10170000069A00F024FA002803D020202066012049
:10171000EEE70020ECE7C0460107000080B500F0CE
:101720000DFB80BDB0B58021415C012901D10220B3
:10173000B0BD024680322421516001680B680C68FC
:101740000125AC430C606C07A3430B60002141668C
:101750001170202050600846B0BD70B5044680204E
:10176000205C012801D1022070BD2546803524204F
:10177000686020680668026801239A4302602B7043
:1017800007225206836893430B438360204600F090
:101790002FFB20680660002028702021696070BD42
:1017A00070B504468020205C012801D1022070BD64
:1017B0002546803524206860206806680268012379
:1017C0009A4302602B7007225207836893430B43AE
:1017D0008360204600F00CFB206806600020287023
:1017E0002021696070BDB0B5002830D004460546A0
:1017F00080356868002804D100202870204600F059
:1018000029F824206860206801680125A943016047
:10181000204600F0B3FB012817D0A06A002802D0B0
:10182000204600F009FB0920C00221684A68824373
:101830004A6088682A22904388600868012202432F
:101840000A60204600F062FB05462846B0BD012034
:10185000B0BD000080B586B00021059104910391D0
:10186000029101910068974A904201D006B080BD74
:10187000012080036A4AD3680343D360D3680340DE
:1018800000930098022002901368034313601268CB
:1018900002400092059104910391C02001900098AC
:1018A000024801A9FEF78AFF06B080BD000400507F
:1018B000F0B587B00E46074684203958022020290B
:1018C00035D10125002E33D00492002A30D00121D9
:1018D0000C03BA68A24204D13A69002A01D1F20786
:1018E00061D103943C4680342278012A05461FD0FA
:1018F000059322463C4654340025D56011702120C2
:1019000002925060FFF72EF80690049860802080C5
:10191000B868039988420ED1386900280496059961
:1019200001D000220492002807D1064605E00546B2
:10193000284607B0F0BD049505990298057007E0A8
:10194000307839688862761C05996088401E60800E
:101950006088002815D000918021002538462A464D
:10196000069B00F0D1FB002817D1002EE8D1049A85
:1019700010880E49084039688862921C04922E46ED
:10198000E2E700914021002538462A46069B00F0F8
:10199000BBFB002803D00325CAE70325C8E72020A6
:1019A00002994860C4E70D46C2E7C046FF01000047
:1019B000FEE7000007200103014800680840704767
:1019C00008100240F0B587B00024069405940494F2
:1019D00003940294124801680222009211430160AC
:1019E00001681140019101990168012739430160A3
:1019F0000068384001900198052005070426284614
:101A000031462246FEF7A6FF0098059004940397FE
:101A1000029602A92846FEF7D1FE07B0F0BDC046E7
:101A20003410024070B50F48002107220162416264
:101A30008162C26201634163282301240A4D1202BC
:101A40004126B60060C0FC3601604260083802469C
:101A5000103252C2C361FFF7FFFB002800D170BDF6
:101A6000FEF798FE100000200030014010B5144829
:101A700000210C22134B016241628162E124640265
:101A800018C0016041608160C26001614161083835
:101A9000FFF7A9FE002811D109480021FFF780FEB9
:101AA00000280BD106480021FFF757FE002805D17A
:101AB0000348FFF737FE002800D110BDFEF76AFE8D
:101AC0007400002000380140FEE77047F0B581B097
:101AD00017460E460446412085006068A8420CD196
:101AE000A0680121CA03904202D08902884204D131
:101AF00020680168402291430160204631463A4601
:101B000000F0BEF8002805D0206E20210143216698
:101B1000032719E03B4660680027A84214D1A0685B
:101B20000121CA03904202D0890288420CD10325C8
:101B300069022046324600F031F8002804D0206EB9
:101B40002021014321662F46384601B0F0BDF0B593
:101B500081B016460F4605460324E1023A46334655
:101B600000F01CF800280FD128463946324600F014
:101B700087F8002808D10320410228463A46334618
:101B800000F00CF8002806D0286E202101432966B9
:101B9000204601B0F0BD0024FAE70000F0B589B09E
:101BA0001E4614460F46029007A800250570FEF752
:101BB000D9FE301A06940419FEF7D4FE029A049056
:101BC0005C48006823214143080D05946043089058
:101BD000106803908068384226D010465C3001902F
:101BE00003E01068806838421CD0032670028742E8
:101BF00004D10398007B07A9087007980698401C39
:101C0000EFD01446FEF7AEFE0499401A05998842BB
:101C10000CD208980899491E089100282246E0D164
:101C20000590DEE72E4628E02E4626E02346206873
:101C30004168E022914341604121890062688A4203
:101C40000CD199680122D3039942234602D0920213
:101C5000914203D1016840229143016001214A036E
:101C60009B6A934205D1036893430360036813435F
:101C700003600020019A10705170304609B0F0BD29
:101C8000F0B583B016460D460446FEF76BFE301ADB
:101C90004719FEF767FE0646264800684001000D1A
:101CA000784302902068806800210191000602D4E8
:101CB000019803B0F0BD20465C30009003E020683E
:101CC00080680006F4D5681CF9D0FEF74BFE801B37
:101CD000B84207D202980299491E02910028EED11B
:101CE0000746ECE720684168E022914341604121CA
:101CF000890062688A420BD1A1680122D30399420C
:101D000002D09202914203D10168402291430160C6
:101D100001214A03A36A934205D1036893430360F8
:101D20000368134303600020009A10705170032071
:101D300003B0F0BD0400002070470000B0B5401EA5
:101D4000010E01D00120B0BD054D68600024E043C4
:101D5000032100F051FAAC60072028602046B0BD96
:101D600010E000E080B5FEF701FE80BDF0B597B051
:101D70000AAC34212046FEF7C2F9002609960896DF
:101D80000796069605960496039602960196009687
:101D900001277802FEF744FE780716907804159024
:101DA00008201490139602251295119540200F904B
:101DB0000E9638020D900A952046FFF72DF8002860
:101DC00013D10996089607200690079506A829467C
:101DD000FEF70EFF002808D1019600976846FEF72F
:101DE00045FE002801D117B0F0BDFEF7D3FC7047C7
:101DF000F0B581B004466834416E002913D0006804
:101E000085688068400F0A4E315C0A4F385CC0001C
:101E1000FEF72CFA60802801400F315C385CC0006E
:101E2000FEF724FA01E001206080208001B0F0BDBF
:101E3000AC2C0008A42C0008B0B5816ACA070CD1EC
:101E40008A0714D44A071CD40A0724D4CA062CD4FF
:101E50008A0634D44A063CD44CE00122520403687A
:101E60005C689443C26A22435A608A07EAD5012219
:101E7000120403685C689443026B22435A604A0769
:101E8000E2D50122920403685C689443426B2243CA
:101E90005A600A07DAD50122D20303685C689443CA
:101EA000826B22435A60CA06D2D50122120303680C
:101EB0009C689443C26B22439A608A06CAD5012269
:101EC000520303689C689443026C22439A604A065A
:101ED00010D501221305026854689C43456C2C43BD
:101EE00054609D4206D103235B0554689C43836C78
:101EF00023435360090607D50121C90402685368CA
:101F00008B43C06C18435060B0BD000070B582B008
:101F100005468C2000242C50FEF724FD0646286838
:101F2000006800070CD514480090012041050022EC
:101F30002846334600F0E8F8002801D0032417E0D3
:101F40002868006840070CD50B48009001208105E7
:101F500000222846334600F0D7F8002801D0032499
:101F600006E0284680302021416081600470EC66E4
:101F7000204602B070BDC046FFFFFF01F0B581B042
:101F8000044600680168534A0A40A16823690B436C
:101F900065691D43E1690D43154305600322120382
:101FA00043689343E2681A434260A269236A134379
:101FB0008268494D15401D438560C26A0F239A43CC
:101FC000636A1343C362454A904209D0444A90422F
:101FD00008D1444800688007000F43A2135802E06C
:101FE000002300E01023264668360125EA03424814
:101FF000914211D1082B21D80027C0467B441B7980
:102000005B009F44041B221B201B1B1B3A00FEF796
:10201000ADFE00281BD133E0082B33D80027C04683
:102020007B441B795B009F44042D342D322D2D2DD4
:102030004800FEF79BFE00282DD141E0002001273B
:10204000002804D11CE0FEF7A3FE002818D0616A26
:1020500049002A4A515AFEF709F9400061684A08C6
:102060001018FEF703F9264901402AD00007400F57
:1020700008432168C8603D4623E010460028E6D1A9
:102080003D461EE000200127002804D118E0FEF79D
:102090007FFE002814D0616A4900184A515AFEF7A1
:1020A000E5F861684A081018FEF7E0F880B21028D9
:1020B00007D32168C8603D4603E010460028EAD1F6
:1020C0003D4610483060002020676067284601B018
:1020D000F0BDC046F369FFCFFFF4FF11004400409C
:1020E00000380140541002400000000004000000CD
:1020F00002000000080000000024F4008C2C0008FE
:10210000F0FF000001000100F0B585B004930D461A
:1021100004460068C0690840401A4142414100201D
:10212000914246D1174602902046803001900A9E87
:1021300001200090C002039007E02068C069284099
:10214000401B41424141B94232D1701CF5D0FEF7EB
:1021500009FC002E2FD00499401AB0422BD82068D9
:1021600001684907E9D5C169039A1142E5D003998D
:102170000162EFF31080009D85F310880D21490165
:10218000226813688B43136080F31088EFF310808C
:1021900085F3108821688A68AA438A6080F31088D2
:1021A0002020019A5060906000211170D0601FE0E3
:1021B000029805B0F0BDEFF31080009D85F3108804
:1021C0000D214901226813688B43136080F3108846
:1021D000EFF3108085F3108821688A68AA438A602B
:1021E00080F310882020019A5060002111709060C7
:1021F000032005B0F0BD0000002805D403220346EB
:1022000093430C4A9A1806E00F220240083A03232F
:102210009A43074BD2188007C00E8901C9B281408A
:10222000FF23834010689843084310607047C046FE
:102230001CED00E000E400E080B582B001900448AD
:1022400001A901220A23FFF733FB019802B080BDE8
:102250007400002082B0FEF793FBFFF787FDFFF7C5
:10226000B1FBFFF7DFFBFFF701FC084D08A4684650
:1022700000F01EF82868FDF7C9FF024620460B460D
:1022800000F048F8C820FEF789FAF0E704010020C2
:1022900074656D703A252E32660A000080B50246DC
:1022A000401E8241052000070421FEF753FB80BD3C
:1022B000F0B581B0044600263046FFF7EFFF124824
:1022C0006F460222012539462B46FFF775F87878CC
:1022D00041070ED4C0086946097849010818FDF77E
:1022E00081FF0025094B2A46FDF714FFFDF7A2FFE9
:1022F0000646074F3D713E600120FFF7CFFF03CF39
:1023000003C401B0F0BDC046100000200000D03F63
:10231000040100200FB410B503A9044B044A02982D
:1023200000F0E8F810BC08BC04B0184739220008D7
:10233000000000202021020C01D010211046020ACA
:1023400001D010460839020901D01046091F820841
:1023500001D01046891E420801D0881E7047081A15
:10236000704702E008C8121F08C1002AFAD170475E
:102370007047002001E001C1121F002AFBD1704705
:10238000F0B51FB486B00998089A030D00210243E6
:1023900014D05148514A1818504305141198012877
:1023A00010981AD0281A401C00264D4F4D4900960F
:1023B00001910490002812DA444211E0119801249E
:1023C00049A3012801D11098C1430698119A84604D
:1023D0000360C26041600BB0F0BD4042E4E70446D8
:1023E000210500203F4A001C51410391029012E058
:1023F000E00707D032463B4601990098FDF78AFE78
:102400000191009032463B4610461946FDF782FE88
:1024100006460F466410002CEAD10498039B00285E
:10242000029A0999089806DAFDF774FE019B009A52
:10243000FDF770FE05E0FEF7BBF8019B009AFEF782
:10244000B7F804460E460022284BFEF749F903D898
:102450000020C043014607E00022254B20463146BC
:10246000FDF7F4FFFEF71CF9102409E0002C0ADB4D
:102470000A220023FDF719FF079B30321A55641E0C
:1024800002460A43F2D11122641C079B121B1C193D
:10249000119B012B03D0012308430ED10AE008430E
:1024A00004D0112010900020119077E71098151A91
:1024B0006D1E0BE01098824202DD00236D1C03E0CC
:1024C000824201DA00236D1E002BEED0069811998E
:1024D0008260C16030C07EE701FCFFFF104D00004C
:1024E000000014400000F03F300000000000F04306
:1024F0000000E03FFFB597B00646002518E225280A
:1025000077D100242746FD49049400E00443761C5B
:1025100032780120203A90400842F7D130782A28BA
:102520000ED00222307801463039092916D8049994
:102530000A235943303940181443761C0490F1E7BC
:10254000189802C804911890002904DA0120400369
:1025500004434842049002200443761C30782E281D
:1025600014D1042004437078761C2A2809D11898C5
:10257000761C80C8189009E00A214F43303FC719E4
:10258000761C3078014630390929F5D930786C2825
:1025900010D006DC4C281AD068280ED06A2817D133
:1025A00004E0742813D07A2812D110E001204005ED
:1025B00004430CE00121090501E0032109050C4356
:1025C0007178814203D1012000052418761C761C05
:1025D0003078119066280BD013DC58287DD009DCA8
:1025E00000287BD04528F6D04628F4D047281AD1B9
:1025F000A5E118E0632835D0642870D0652812D191
:102600009DE170286CD008DC6728F1D069287BD068
:102610006E280DD06F2806D1BAE073282ED0752809
:1026200071D0782859D01A9A199990476D1C7EE17B
:102630006002400F022809D003280DD00428189802
:1026400001680DD00D60001D189070E11898EA1710
:1026500001680D604A60F6E7189801680D80F2E79E
:102660000D70F0E718986A4601781172001D1890F5
:102670000020507202A80090012005E0189802C8BE
:10268000189000200091C04361070DD5002101E0A2
:102690000199491C0191B94212DA8142F8DB009A92
:1026A000515C0029F4D10BE0002101E00199491CA3
:1026B00001918142FADB019A0099895C0029F5D1E8
:1026C000019904981A9B471A21463846199A00F036
:1026D00097FA0199401945180BE04FE02CE113E0FF
:1026E0004EE0009800990078491C00911A9A1999B7
:1026F00090470198401E0190401CF2D12146384677
:102700001A9B199A10E137E00A20002100900191EC
:102710006002410F022907D0189A01CA1892C21705
:102720009446032908D00AE01898C01DC108C900C2
:1027300005C91891944607E000B2C21794460429CF
:1027400002D140B2C1178C4600226146944506DA98
:102750000A460021404291418C462D2102E021058C
:1027600004D52B216A461173012103E0E10701D052
:102770002021F7E7029155E00A200AE0102008E046
:10278000102000900021042004430191082703E059
:1027900008200021019100906002410F022907D01A
:1027A000189A01CA189200229446032908D008E01A
:1027B0001898C01DC108C90005C91891944603E0C6
:1027C00080B2042900D1C0B200210291210729D58D
:1027D0001199702906D0009A1021019B4A401A4392
:1027E00005D00EE040216A461173012108E06146E0
:1027F000014306D030216A461173119951730221A9
:102800000291009A0821019B4A401A430AD161466D
:10281000014301D1610705D530216A4611730121B9
:102820007F1E02911199582904D035A10E910DA94E
:102830000D910DE037A1F9E76146019B009AFDF784
:1028400034FD0E9B8C469B5C0D9A521E0D921370AC
:1028500061460143F0D10D9805A9081A2030019076
:10286000600703D501200004844300E0012701989C
:10287000874201DD381A00E00020019900904118DC
:10288000029809180498401A0490E00306D42146DF
:102890001A9B199A049800F0B3F94519002706E02D
:1028A00003A81A9AC05D199990476D1C7F1C029865
:1028B0008742F5DBE0030CD521461A9B199A049850
:1028C00000F09EF9451904E01A9A302019999047B2
:1028D0006D1C0099481E00900029F5DC08E00D9859
:1028E0000D990078491C0D911A9A199990476D1C01
:1028F0000199481E01900029F1DC63E109280100DB
:102900003031323334353637383961626364656665
:102910000000000030313233343536373839414227
:10292000434445460000000000F05AF94519761C62
:102930003078002800D0E2E528461BB0F0BD6007E3
:1029400000D406271898C01DC108C90048680A6845
:102950000831C30FDB071891190001D09CA108E0D2
:10296000210501D59BA104E0E10701D09AA100E077
:102970009AA1430011985B08109165280CD006DCE1
:10298000452809D046281DD0472841D141E0662876
:1029900018D067283CD13CE00021112F01DB112029
:1029A00000E0781C0191009008A911A8FFF7E8FC4D
:1029B000139905910021119A15927F1C1298019785
:1029C000009150E00120C00703900120019008A968
:1029D000009711A8FFF7D4FC139A149905920022CE
:1029E000119B009212981593059A0192002901D02B
:1029F000104602E0791C40180190381A01D5019860
:102A000004E04042401E0090781C0190C01B0290E0
:102A100043E0012F00DA01270021112F01DD1120F1
:102A200000E038460191009008A911A8FFF7A8FC22
:102A300013990591119A002112981592009101970E
:102A400021070CD40599B94201DB019900E00191FD
:102A5000012904DD159A491E515C302906D0B8427F
:102A600001DA011D05DA0121029115E00199491EE3
:102A7000EDE7002805DC0099411800910199091A39
:102A800003E0019A411C914200DD01910099401A36
:102A9000401C02900120C0070390200706D4029931
:102AA0000198814202DB0020C04302900020694669
:102AB000C87707AF012103980337C907884224D09C
:102AC000022011902B201290039800280CDA40422B
:102AD00003902D20129007E00A210398FDF7C6FB12
:102AE00030317F1E039039701199481E11900029D2
:102AF000F2DC03980028EFD1791E12980870307824
:102B0000202108404530BF1E387006A8C01BC01DDC
:102B1000039010980078002800D0012001994118F6
:102B20000298C0170918039809180498401A401E03
:102B30000490E00306D421461A9B199A049800F0E9
:102B40005FF8451910980078002803D01A9A19994F
:102B500090476D1CE00324D521461A9B199A0498CE
:102B600000F04EF845191CE00098002807DB00999A
:102B70000598884203DD1598405C199901E0199980
:102B800030201A9A904700986D1C401C00900298C3
:102B9000401E0290002804D11A9A2E2019999047BD
:102BA0006D1C0199481E01900029DDDC05E0387894
:102BB0001A9A7F1C199990476D1C0399481E03901F
:102BC0000029F4DC21461A9B199A0498ACE600000F
:102BD0002D0000002B00000020000000000000007D
:102BE000F8B5044600251E461746880404D405E0BF
:102BF00039462020B0476D1C641EF9D52846F8BD23
:102C0000FFB50446002581B01E46C80301D5302714
:102C100000E02027880404D505E038460399B04732
:102C20006D1C641EF9D5284605B0F0BD00000000FB
:102C30000000000000000000000000000000000094
:102C40000000000000000000000000000100000083
:102C50000200000003000000040000000600000065
:102C6000070000000800000009000000000000004C
:102C70000000000000000000000000000100000053
:102C80000200000003000000040000000100020038
:102C90000400060008000A000C001000200040009C
:102CA0008000000101010103070100000804020483
:102CB00008010101D82C00080000002010000000CD
:102CC00062230008E82C0008100000200005000026
:102CD0007223000800000000000000000024F4003F
:082CE0000100000004000000E7
:04000005080000C12E
:00000001FF
